{
	"UserCounter.sol": {
		"UserCounter": {
			"abi": [
				{
					"anonymous": false,
					"inputs": [
						{
							"indexed": false,
							"internalType": "address",
							"name": "user",
							"type": "address"
						},
						{
							"indexed": false,
							"internalType": "uint256",
							"name": "newValue",
							"type": "uint256"
						}
					],
					"name": "CounterUpdated",
					"type": "event"
				},
				{
					"inputs": [
						{
							"internalType": "uint256",
							"name": "_userId",
							"type": "uint256"
						}
					],
					"name": "createUser",
					"outputs": [],
					"stateMutability": "nonpayable",
					"type": "function"
				},
				{
					"inputs": [],
					"name": "getUserCount",
					"outputs": [
						{
							"internalType": "uint256",
							"name": "",
							"type": "uint256"
						}
					],
					"stateMutability": "view",
					"type": "function"
				},
				{
					"inputs": [
						{
							"internalType": "uint256",
							"name": "_newValue",
							"type": "uint256"
						}
					],
					"name": "updateCounter",
					"outputs": [],
					"stateMutability": "nonpayable",
					"type": "function"
				},
				{
					"inputs": [
						{
							"internalType": "uint256",
							"name": "",
							"type": "uint256"
						}
					],
					"name": "userAddresses",
					"outputs": [
						{
							"internalType": "address",
							"name": "",
							"type": "address"
						}
					],
					"stateMutability": "view",
					"type": "function"
				},
				{
					"inputs": [
						{
							"internalType": "address",
							"name": "",
							"type": "address"
						}
					],
					"name": "users",
					"outputs": [
						{
							"internalType": "uint256",
							"name": "userId",
							"type": "uint256"
						},
						{
							"internalType": "uint256",
							"name": "counter",
							"type": "uint256"
						}
					],
					"stateMutability": "view",
					"type": "function"
				}
			],
			"devdoc": {
				"kind": "dev",
				"methods": {},
				"version": 1
			},
			"evm": {
				"assembly": "    /* \"UserCounter.sol\":60:872  contract UserCounter {... */\n  mstore(0x40, 0x80)\n  callvalue\n  dup1\n  iszero\n  tag_1\n  jumpi\n  0x00\n  dup1\n  revert\ntag_1:\n  pop\n  dataSize(sub_0)\n  dup1\n  dataOffset(sub_0)\n  0x00\n  codecopy\n  0x00\n  return\nstop\n\nsub_0: assembly {\n        /* \"UserCounter.sol\":60:872  contract UserCounter {... */\n      mstore(0x40, 0x80)\n      callvalue\n      dup1\n      iszero\n      tag_1\n      jumpi\n      0x00\n      dup1\n      revert\n    tag_1:\n      pop\n      jumpi(tag_2, lt(calldatasize, 0x04))\n      shr(0xe0, calldataload(0x00))\n      dup1\n      0x502c9bd5\n      eq\n      tag_3\n      jumpi\n      dup1\n      0xa87430ba\n      eq\n      tag_4\n      jumpi\n      dup1\n      0xb5cb15f7\n      eq\n      tag_5\n      jumpi\n      dup1\n      0xc648049d\n      eq\n      tag_6\n      jumpi\n      dup1\n      0xffbdff66\n      eq\n      tag_7\n      jumpi\n    tag_2:\n      0x00\n      dup1\n      revert\n        /* \"UserCounter.sol\":211:241  address[] public userAddresses */\n    tag_3:\n      tag_8\n      0x04\n      dup1\n      calldatasize\n      sub\n      dup2\n      add\n      swap1\n      tag_9\n      swap2\n      swap1\n      tag_10\n      jump\t// in\n    tag_9:\n      tag_11\n      jump\t// in\n    tag_8:\n      mload(0x40)\n      tag_12\n      swap2\n      swap1\n      tag_13\n      jump\t// in\n    tag_12:\n      mload(0x40)\n      dup1\n      swap2\n      sub\n      swap1\n      return\n        /* \"UserCounter.sol\":167:204  mapping(address => User) public users */\n    tag_4:\n      tag_14\n      0x04\n      dup1\n      calldatasize\n      sub\n      dup2\n      add\n      swap1\n      tag_15\n      swap2\n      swap1\n      tag_16\n      jump\t// in\n    tag_15:\n      tag_17\n      jump\t// in\n    tag_14:\n      mload(0x40)\n      tag_18\n      swap3\n      swap2\n      swap1\n      tag_19\n      jump\t// in\n    tag_18:\n      mload(0x40)\n      dup1\n      swap2\n      sub\n      swap1\n      return\n        /* \"UserCounter.sol\":769:869  function getUserCount() public view returns (uint256) {... */\n    tag_5:\n      tag_20\n      tag_21\n      jump\t// in\n    tag_20:\n      mload(0x40)\n      tag_22\n      swap2\n      swap1\n      tag_23\n      jump\t// in\n    tag_22:\n      mload(0x40)\n      dup1\n      swap2\n      sub\n      swap1\n      return\n        /* \"UserCounter.sol\":531:761  function updateCounter(uint256 _newValue) public {... */\n    tag_6:\n      tag_24\n      0x04\n      dup1\n      calldatasize\n      sub\n      dup2\n      add\n      swap1\n      tag_25\n      swap2\n      swap1\n      tag_10\n      jump\t// in\n    tag_25:\n      tag_26\n      jump\t// in\n    tag_24:\n      stop\n        /* \"UserCounter.sol\":311:523  function createUser(uint256 _userId) public {... */\n    tag_7:\n      tag_27\n      0x04\n      dup1\n      calldatasize\n      sub\n      dup2\n      add\n      swap1\n      tag_28\n      swap2\n      swap1\n      tag_10\n      jump\t// in\n    tag_28:\n      tag_29\n      jump\t// in\n    tag_27:\n      stop\n        /* \"UserCounter.sol\":211:241  address[] public userAddresses */\n    tag_11:\n      0x01\n      dup2\n      dup2\n      sload\n      dup2\n      lt\n      tag_30\n      jumpi\n      0x00\n      dup1\n      revert\n    tag_30:\n      swap1\n      0x00\n      mstore\n      keccak256(0x00, 0x20)\n      add\n      0x00\n      swap2\n      pop\n      sload\n      swap1\n      0x0100\n      exp\n      swap1\n      div\n      0xffffffffffffffffffffffffffffffffffffffff\n      and\n      dup2\n      jump\t// out\n        /* \"UserCounter.sol\":167:204  mapping(address => User) public users */\n    tag_17:\n      mstore(0x20, 0x00)\n      dup1\n      0x00\n      mstore\n      keccak256(0x00, 0x40)\n      0x00\n      swap2\n      pop\n      swap1\n      pop\n      dup1\n      0x00\n      add\n      sload\n      swap1\n      dup1\n      0x01\n      add\n      sload\n      swap1\n      pop\n      dup3\n      jump\t// out\n        /* \"UserCounter.sol\":769:869  function getUserCount() public view returns (uint256) {... */\n    tag_21:\n        /* \"UserCounter.sol\":814:821  uint256 */\n      0x00\n        /* \"UserCounter.sol\":841:854  userAddresses */\n      0x01\n        /* \"UserCounter.sol\":841:861  userAddresses.length */\n      dup1\n      sload\n      swap1\n      pop\n        /* \"UserCounter.sol\":834:861  return userAddresses.length */\n      swap1\n      pop\n        /* \"UserCounter.sol\":769:869  function getUserCount() public view returns (uint256) {... */\n      swap1\n      jump\t// out\n        /* \"UserCounter.sol\":531:761  function updateCounter(uint256 _newValue) public {... */\n    tag_26:\n        /* \"UserCounter.sol\":627:628  0 */\n      0x00\n        /* \"UserCounter.sol\":599:604  users */\n      dup1\n        /* \"UserCounter.sol\":599:616  users[msg.sender] */\n      0x00\n        /* \"UserCounter.sol\":605:615  msg.sender */\n      caller\n        /* \"UserCounter.sol\":599:616  users[msg.sender] */\n      0xffffffffffffffffffffffffffffffffffffffff\n      and\n      0xffffffffffffffffffffffffffffffffffffffff\n      and\n      dup2\n      mstore\n      0x20\n      add\n      swap1\n      dup2\n      mstore\n      0x20\n      add\n      0x00\n      keccak256\n        /* \"UserCounter.sol\":599:623  users[msg.sender].userId */\n      0x00\n      add\n      sload\n        /* \"UserCounter.sol\":599:628  users[msg.sender].userId != 0 */\n      sub\n        /* \"UserCounter.sol\":591:652  require(users[msg.sender].userId != 0, \"User does not exist\") */\n      tag_34\n      jumpi\n      mload(0x40)\n      0x08c379a000000000000000000000000000000000000000000000000000000000\n      dup2\n      mstore\n      0x04\n      add\n      tag_35\n      swap1\n      tag_36\n      jump\t// in\n    tag_35:\n      mload(0x40)\n      dup1\n      swap2\n      sub\n      swap1\n      revert\n    tag_34:\n        /* \"UserCounter.sol\":691:700  _newValue */\n      dup1\n        /* \"UserCounter.sol\":663:668  users */\n      0x00\n        /* \"UserCounter.sol\":663:680  users[msg.sender] */\n      dup1\n        /* \"UserCounter.sol\":669:679  msg.sender */\n      caller\n        /* \"UserCounter.sol\":663:680  users[msg.sender] */\n      0xffffffffffffffffffffffffffffffffffffffff\n      and\n      0xffffffffffffffffffffffffffffffffffffffff\n      and\n      dup2\n      mstore\n      0x20\n      add\n      swap1\n      dup2\n      mstore\n      0x20\n      add\n      0x00\n      keccak256\n        /* \"UserCounter.sol\":663:688  users[msg.sender].counter */\n      0x01\n      add\n        /* \"UserCounter.sol\":663:700  users[msg.sender].counter = _newValue */\n      dup2\n      swap1\n      sstore\n      pop\n        /* \"UserCounter.sol\":716:753  CounterUpdated(msg.sender, _newValue) */\n      0xe8e4f1ef1872055fc8a48b9bbb125507e2478dcbaf35f2ce198dfbd3cb00d3f3\n        /* \"UserCounter.sol\":731:741  msg.sender */\n      caller\n        /* \"UserCounter.sol\":743:752  _newValue */\n      dup3\n        /* \"UserCounter.sol\":716:753  CounterUpdated(msg.sender, _newValue) */\n      mload(0x40)\n      tag_37\n      swap3\n      swap2\n      swap1\n      tag_38\n      jump\t// in\n    tag_37:\n      mload(0x40)\n      dup1\n      swap2\n      sub\n      swap1\n      log1\n        /* \"UserCounter.sol\":531:761  function updateCounter(uint256 _newValue) public {... */\n      pop\n      jump\t// out\n        /* \"UserCounter.sol\":311:523  function createUser(uint256 _userId) public {... */\n    tag_29:\n        /* \"UserCounter.sol\":402:403  0 */\n      0x00\n        /* \"UserCounter.sol\":374:379  users */\n      dup1\n        /* \"UserCounter.sol\":374:391  users[msg.sender] */\n      0x00\n        /* \"UserCounter.sol\":380:390  msg.sender */\n      caller\n        /* \"UserCounter.sol\":374:391  users[msg.sender] */\n      0xffffffffffffffffffffffffffffffffffffffff\n      and\n      0xffffffffffffffffffffffffffffffffffffffff\n      and\n      dup2\n      mstore\n      0x20\n      add\n      swap1\n      dup2\n      mstore\n      0x20\n      add\n      0x00\n      keccak256\n        /* \"UserCounter.sol\":374:398  users[msg.sender].userId */\n      0x00\n      add\n      sload\n        /* \"UserCounter.sol\":374:403  users[msg.sender].userId == 0 */\n      eq\n        /* \"UserCounter.sol\":366:427  require(users[msg.sender].userId == 0, \"User already exists\") */\n      tag_40\n      jumpi\n      mload(0x40)\n      0x08c379a000000000000000000000000000000000000000000000000000000000\n      dup2\n      mstore\n      0x04\n      add\n      tag_41\n      swap1\n      tag_42\n      jump\t// in\n    tag_41:\n      mload(0x40)\n      dup1\n      swap2\n      sub\n      swap1\n      revert\n    tag_40:\n        /* \"UserCounter.sol\":458:474  User(_userId, 0) */\n      mload(0x40)\n      dup1\n      0x40\n      add\n      0x40\n      mstore\n      dup1\n        /* \"UserCounter.sol\":463:470  _userId */\n      dup3\n        /* \"UserCounter.sol\":458:474  User(_userId, 0) */\n      dup2\n      mstore\n      0x20\n      add\n        /* \"UserCounter.sol\":472:473  0 */\n      0x00\n        /* \"UserCounter.sol\":458:474  User(_userId, 0) */\n      dup2\n      mstore\n      pop\n        /* \"UserCounter.sol\":438:443  users */\n      0x00\n        /* \"UserCounter.sol\":438:455  users[msg.sender] */\n      dup1\n        /* \"UserCounter.sol\":444:454  msg.sender */\n      caller\n        /* \"UserCounter.sol\":438:455  users[msg.sender] */\n      0xffffffffffffffffffffffffffffffffffffffff\n      and\n      0xffffffffffffffffffffffffffffffffffffffff\n      and\n      dup2\n      mstore\n      0x20\n      add\n      swap1\n      dup2\n      mstore\n      0x20\n      add\n      0x00\n      keccak256\n        /* \"UserCounter.sol\":438:474  users[msg.sender] = User(_userId, 0) */\n      0x00\n      dup3\n      add\n      mload\n      dup2\n      0x00\n      add\n      sstore\n      0x20\n      dup3\n      add\n      mload\n      dup2\n      0x01\n      add\n      sstore\n      swap1\n      pop\n      pop\n        /* \"UserCounter.sol\":485:498  userAddresses */\n      0x01\n        /* \"UserCounter.sol\":504:514  msg.sender */\n      caller\n        /* \"UserCounter.sol\":485:515  userAddresses.push(msg.sender) */\n      swap1\n      dup1\n      0x01\n      dup2\n      sload\n      add\n      dup1\n      dup3\n      sstore\n      dup1\n      swap2\n      pop\n      pop\n      0x01\n      swap1\n      sub\n      swap1\n      0x00\n      mstore\n      keccak256(0x00, 0x20)\n      add\n      0x00\n      swap1\n      swap2\n      swap1\n      swap2\n      swap1\n      swap2\n      0x0100\n      exp\n      dup2\n      sload\n      dup2\n      0xffffffffffffffffffffffffffffffffffffffff\n      mul\n      not\n      and\n      swap1\n      dup4\n      0xffffffffffffffffffffffffffffffffffffffff\n      and\n      mul\n      or\n      swap1\n      sstore\n      pop\n        /* \"UserCounter.sol\":311:523  function createUser(uint256 _userId) public {... */\n      pop\n      jump\t// out\n        /* \"#utility.yul\":88:205   */\n    tag_45:\n        /* \"#utility.yul\":197:198   */\n      0x00\n        /* \"#utility.yul\":194:195   */\n      dup1\n        /* \"#utility.yul\":187:199   */\n      revert\n        /* \"#utility.yul\":334:411   */\n    tag_47:\n        /* \"#utility.yul\":371:378   */\n      0x00\n        /* \"#utility.yul\":400:405   */\n      dup2\n        /* \"#utility.yul\":389:405   */\n      swap1\n      pop\n        /* \"#utility.yul\":334:411   */\n      swap2\n      swap1\n      pop\n      jump\t// out\n        /* \"#utility.yul\":417:539   */\n    tag_48:\n        /* \"#utility.yul\":490:514   */\n      tag_67\n        /* \"#utility.yul\":508:513   */\n      dup2\n        /* \"#utility.yul\":490:514   */\n      tag_47\n      jump\t// in\n    tag_67:\n        /* \"#utility.yul\":483:488   */\n      dup2\n        /* \"#utility.yul\":480:515   */\n      eq\n        /* \"#utility.yul\":470:533   */\n      tag_68\n      jumpi\n        /* \"#utility.yul\":529:530   */\n      0x00\n        /* \"#utility.yul\":526:527   */\n      dup1\n        /* \"#utility.yul\":519:531   */\n      revert\n        /* \"#utility.yul\":470:533   */\n    tag_68:\n        /* \"#utility.yul\":417:539   */\n      pop\n      jump\t// out\n        /* \"#utility.yul\":545:684   */\n    tag_49:\n        /* \"#utility.yul\":591:596   */\n      0x00\n        /* \"#utility.yul\":629:635   */\n      dup2\n        /* \"#utility.yul\":616:636   */\n      calldataload\n        /* \"#utility.yul\":607:636   */\n      swap1\n      pop\n        /* \"#utility.yul\":645:678   */\n      tag_70\n        /* \"#utility.yul\":672:677   */\n      dup2\n        /* \"#utility.yul\":645:678   */\n      tag_48\n      jump\t// in\n    tag_70:\n        /* \"#utility.yul\":545:684   */\n      swap3\n      swap2\n      pop\n      pop\n      jump\t// out\n        /* \"#utility.yul\":690:1019   */\n    tag_10:\n        /* \"#utility.yul\":749:755   */\n      0x00\n        /* \"#utility.yul\":798:800   */\n      0x20\n        /* \"#utility.yul\":786:795   */\n      dup3\n        /* \"#utility.yul\":777:784   */\n      dup5\n        /* \"#utility.yul\":773:796   */\n      sub\n        /* \"#utility.yul\":769:801   */\n      slt\n        /* \"#utility.yul\":766:885   */\n      iszero\n      tag_72\n      jumpi\n        /* \"#utility.yul\":804:883   */\n      tag_73\n      tag_45\n      jump\t// in\n    tag_73:\n        /* \"#utility.yul\":766:885   */\n    tag_72:\n        /* \"#utility.yul\":924:925   */\n      0x00\n        /* \"#utility.yul\":949:1002   */\n      tag_74\n        /* \"#utility.yul\":994:1001   */\n      dup5\n        /* \"#utility.yul\":985:991   */\n      dup3\n        /* \"#utility.yul\":974:983   */\n      dup6\n        /* \"#utility.yul\":970:992   */\n      add\n        /* \"#utility.yul\":949:1002   */\n      tag_49\n      jump\t// in\n    tag_74:\n        /* \"#utility.yul\":939:1002   */\n      swap2\n      pop\n        /* \"#utility.yul\":895:1012   */\n      pop\n        /* \"#utility.yul\":690:1019   */\n      swap3\n      swap2\n      pop\n      pop\n      jump\t// out\n        /* \"#utility.yul\":1025:1151   */\n    tag_50:\n        /* \"#utility.yul\":1062:1069   */\n      0x00\n        /* \"#utility.yul\":1102:1144   */\n      0xffffffffffffffffffffffffffffffffffffffff\n        /* \"#utility.yul\":1095:1100   */\n      dup3\n        /* \"#utility.yul\":1091:1145   */\n      and\n        /* \"#utility.yul\":1080:1145   */\n      swap1\n      pop\n        /* \"#utility.yul\":1025:1151   */\n      swap2\n      swap1\n      pop\n      jump\t// out\n        /* \"#utility.yul\":1157:1253   */\n    tag_51:\n        /* \"#utility.yul\":1194:1201   */\n      0x00\n        /* \"#utility.yul\":1223:1247   */\n      tag_77\n        /* \"#utility.yul\":1241:1246   */\n      dup3\n        /* \"#utility.yul\":1223:1247   */\n      tag_50\n      jump\t// in\n    tag_77:\n        /* \"#utility.yul\":1212:1247   */\n      swap1\n      pop\n        /* \"#utility.yul\":1157:1253   */\n      swap2\n      swap1\n      pop\n      jump\t// out\n        /* \"#utility.yul\":1259:1377   */\n    tag_52:\n        /* \"#utility.yul\":1346:1370   */\n      tag_79\n        /* \"#utility.yul\":1364:1369   */\n      dup2\n        /* \"#utility.yul\":1346:1370   */\n      tag_51\n      jump\t// in\n    tag_79:\n        /* \"#utility.yul\":1341:1344   */\n      dup3\n        /* \"#utility.yul\":1334:1371   */\n      mstore\n        /* \"#utility.yul\":1259:1377   */\n      pop\n      pop\n      jump\t// out\n        /* \"#utility.yul\":1383:1605   */\n    tag_13:\n        /* \"#utility.yul\":1476:1480   */\n      0x00\n        /* \"#utility.yul\":1514:1516   */\n      0x20\n        /* \"#utility.yul\":1503:1512   */\n      dup3\n        /* \"#utility.yul\":1499:1517   */\n      add\n        /* \"#utility.yul\":1491:1517   */\n      swap1\n      pop\n        /* \"#utility.yul\":1527:1598   */\n      tag_81\n        /* \"#utility.yul\":1595:1596   */\n      0x00\n        /* \"#utility.yul\":1584:1593   */\n      dup4\n        /* \"#utility.yul\":1580:1597   */\n      add\n        /* \"#utility.yul\":1571:1577   */\n      dup5\n        /* \"#utility.yul\":1527:1598   */\n      tag_52\n      jump\t// in\n    tag_81:\n        /* \"#utility.yul\":1383:1605   */\n      swap3\n      swap2\n      pop\n      pop\n      jump\t// out\n        /* \"#utility.yul\":1611:1733   */\n    tag_53:\n        /* \"#utility.yul\":1684:1708   */\n      tag_83\n        /* \"#utility.yul\":1702:1707   */\n      dup2\n        /* \"#utility.yul\":1684:1708   */\n      tag_51\n      jump\t// in\n    tag_83:\n        /* \"#utility.yul\":1677:1682   */\n      dup2\n        /* \"#utility.yul\":1674:1709   */\n      eq\n        /* \"#utility.yul\":1664:1727   */\n      tag_84\n      jumpi\n        /* \"#utility.yul\":1723:1724   */\n      0x00\n        /* \"#utility.yul\":1720:1721   */\n      dup1\n        /* \"#utility.yul\":1713:1725   */\n      revert\n        /* \"#utility.yul\":1664:1727   */\n    tag_84:\n        /* \"#utility.yul\":1611:1733   */\n      pop\n      jump\t// out\n        /* \"#utility.yul\":1739:1878   */\n    tag_54:\n        /* \"#utility.yul\":1785:1790   */\n      0x00\n        /* \"#utility.yul\":1823:1829   */\n      dup2\n        /* \"#utility.yul\":1810:1830   */\n      calldataload\n        /* \"#utility.yul\":1801:1830   */\n      swap1\n      pop\n        /* \"#utility.yul\":1839:1872   */\n      tag_86\n        /* \"#utility.yul\":1866:1871   */\n      dup2\n        /* \"#utility.yul\":1839:1872   */\n      tag_53\n      jump\t// in\n    tag_86:\n        /* \"#utility.yul\":1739:1878   */\n      swap3\n      swap2\n      pop\n      pop\n      jump\t// out\n        /* \"#utility.yul\":1884:2213   */\n    tag_16:\n        /* \"#utility.yul\":1943:1949   */\n      0x00\n        /* \"#utility.yul\":1992:1994   */\n      0x20\n        /* \"#utility.yul\":1980:1989   */\n      dup3\n        /* \"#utility.yul\":1971:1978   */\n      dup5\n        /* \"#utility.yul\":1967:1990   */\n      sub\n        /* \"#utility.yul\":1963:1995   */\n      slt\n        /* \"#utility.yul\":1960:2079   */\n      iszero\n      tag_88\n      jumpi\n        /* \"#utility.yul\":1998:2077   */\n      tag_89\n      tag_45\n      jump\t// in\n    tag_89:\n        /* \"#utility.yul\":1960:2079   */\n    tag_88:\n        /* \"#utility.yul\":2118:2119   */\n      0x00\n        /* \"#utility.yul\":2143:2196   */\n      tag_90\n        /* \"#utility.yul\":2188:2195   */\n      dup5\n        /* \"#utility.yul\":2179:2185   */\n      dup3\n        /* \"#utility.yul\":2168:2177   */\n      dup6\n        /* \"#utility.yul\":2164:2186   */\n      add\n        /* \"#utility.yul\":2143:2196   */\n      tag_54\n      jump\t// in\n    tag_90:\n        /* \"#utility.yul\":2133:2196   */\n      swap2\n      pop\n        /* \"#utility.yul\":2089:2206   */\n      pop\n        /* \"#utility.yul\":1884:2213   */\n      swap3\n      swap2\n      pop\n      pop\n      jump\t// out\n        /* \"#utility.yul\":2219:2337   */\n    tag_55:\n        /* \"#utility.yul\":2306:2330   */\n      tag_92\n        /* \"#utility.yul\":2324:2329   */\n      dup2\n        /* \"#utility.yul\":2306:2330   */\n      tag_47\n      jump\t// in\n    tag_92:\n        /* \"#utility.yul\":2301:2304   */\n      dup3\n        /* \"#utility.yul\":2294:2331   */\n      mstore\n        /* \"#utility.yul\":2219:2337   */\n      pop\n      pop\n      jump\t// out\n        /* \"#utility.yul\":2343:2675   */\n    tag_19:\n        /* \"#utility.yul\":2464:2468   */\n      0x00\n        /* \"#utility.yul\":2502:2504   */\n      0x40\n        /* \"#utility.yul\":2491:2500   */\n      dup3\n        /* \"#utility.yul\":2487:2505   */\n      add\n        /* \"#utility.yul\":2479:2505   */\n      swap1\n      pop\n        /* \"#utility.yul\":2515:2586   */\n      tag_94\n        /* \"#utility.yul\":2583:2584   */\n      0x00\n        /* \"#utility.yul\":2572:2581   */\n      dup4\n        /* \"#utility.yul\":2568:2585   */\n      add\n        /* \"#utility.yul\":2559:2565   */\n      dup6\n        /* \"#utility.yul\":2515:2586   */\n      tag_55\n      jump\t// in\n    tag_94:\n        /* \"#utility.yul\":2596:2668   */\n      tag_95\n        /* \"#utility.yul\":2664:2666   */\n      0x20\n        /* \"#utility.yul\":2653:2662   */\n      dup4\n        /* \"#utility.yul\":2649:2667   */\n      add\n        /* \"#utility.yul\":2640:2646   */\n      dup5\n        /* \"#utility.yul\":2596:2668   */\n      tag_55\n      jump\t// in\n    tag_95:\n        /* \"#utility.yul\":2343:2675   */\n      swap4\n      swap3\n      pop\n      pop\n      pop\n      jump\t// out\n        /* \"#utility.yul\":2681:2903   */\n    tag_23:\n        /* \"#utility.yul\":2774:2778   */\n      0x00\n        /* \"#utility.yul\":2812:2814   */\n      0x20\n        /* \"#utility.yul\":2801:2810   */\n      dup3\n        /* \"#utility.yul\":2797:2815   */\n      add\n        /* \"#utility.yul\":2789:2815   */\n      swap1\n      pop\n        /* \"#utility.yul\":2825:2896   */\n      tag_97\n        /* \"#utility.yul\":2893:2894   */\n      0x00\n        /* \"#utility.yul\":2882:2891   */\n      dup4\n        /* \"#utility.yul\":2878:2895   */\n      add\n        /* \"#utility.yul\":2869:2875   */\n      dup5\n        /* \"#utility.yul\":2825:2896   */\n      tag_55\n      jump\t// in\n    tag_97:\n        /* \"#utility.yul\":2681:2903   */\n      swap3\n      swap2\n      pop\n      pop\n      jump\t// out\n        /* \"#utility.yul\":2909:3078   */\n    tag_56:\n        /* \"#utility.yul\":2993:3004   */\n      0x00\n        /* \"#utility.yul\":3027:3033   */\n      dup3\n        /* \"#utility.yul\":3022:3025   */\n      dup3\n        /* \"#utility.yul\":3015:3034   */\n      mstore\n        /* \"#utility.yul\":3067:3071   */\n      0x20\n        /* \"#utility.yul\":3062:3065   */\n      dup3\n        /* \"#utility.yul\":3058:3072   */\n      add\n        /* \"#utility.yul\":3043:3072   */\n      swap1\n      pop\n        /* \"#utility.yul\":2909:3078   */\n      swap3\n      swap2\n      pop\n      pop\n      jump\t// out\n        /* \"#utility.yul\":3084:3253   */\n    tag_57:\n        /* \"#utility.yul\":3224:3245   */\n      0x5573657220646f6573206e6f7420657869737400000000000000000000000000\n        /* \"#utility.yul\":3220:3221   */\n      0x00\n        /* \"#utility.yul\":3212:3218   */\n      dup3\n        /* \"#utility.yul\":3208:3222   */\n      add\n        /* \"#utility.yul\":3201:3246   */\n      mstore\n        /* \"#utility.yul\":3084:3253   */\n      pop\n      jump\t// out\n        /* \"#utility.yul\":3259:3625   */\n    tag_58:\n        /* \"#utility.yul\":3401:3404   */\n      0x00\n        /* \"#utility.yul\":3422:3489   */\n      tag_101\n        /* \"#utility.yul\":3486:3488   */\n      0x13\n        /* \"#utility.yul\":3481:3484   */\n      dup4\n        /* \"#utility.yul\":3422:3489   */\n      tag_56\n      jump\t// in\n    tag_101:\n        /* \"#utility.yul\":3415:3489   */\n      swap2\n      pop\n        /* \"#utility.yul\":3498:3591   */\n      tag_102\n        /* \"#utility.yul\":3587:3590   */\n      dup3\n        /* \"#utility.yul\":3498:3591   */\n      tag_57\n      jump\t// in\n    tag_102:\n        /* \"#utility.yul\":3616:3618   */\n      0x20\n        /* \"#utility.yul\":3611:3614   */\n      dup3\n        /* \"#utility.yul\":3607:3619   */\n      add\n        /* \"#utility.yul\":3600:3619   */\n      swap1\n      pop\n        /* \"#utility.yul\":3259:3625   */\n      swap2\n      swap1\n      pop\n      jump\t// out\n        /* \"#utility.yul\":3631:4050   */\n    tag_36:\n        /* \"#utility.yul\":3797:3801   */\n      0x00\n        /* \"#utility.yul\":3835:3837   */\n      0x20\n        /* \"#utility.yul\":3824:3833   */\n      dup3\n        /* \"#utility.yul\":3820:3838   */\n      add\n        /* \"#utility.yul\":3812:3838   */\n      swap1\n      pop\n        /* \"#utility.yul\":3884:3893   */\n      dup2\n        /* \"#utility.yul\":3878:3882   */\n      dup2\n        /* \"#utility.yul\":3874:3894   */\n      sub\n        /* \"#utility.yul\":3870:3871   */\n      0x00\n        /* \"#utility.yul\":3859:3868   */\n      dup4\n        /* \"#utility.yul\":3855:3872   */\n      add\n        /* \"#utility.yul\":3848:3895   */\n      mstore\n        /* \"#utility.yul\":3912:4043   */\n      tag_104\n        /* \"#utility.yul\":4038:4042   */\n      dup2\n        /* \"#utility.yul\":3912:4043   */\n      tag_58\n      jump\t// in\n    tag_104:\n        /* \"#utility.yul\":3904:4043   */\n      swap1\n      pop\n        /* \"#utility.yul\":3631:4050   */\n      swap2\n      swap1\n      pop\n      jump\t// out\n        /* \"#utility.yul\":4056:4388   */\n    tag_38:\n        /* \"#utility.yul\":4177:4181   */\n      0x00\n        /* \"#utility.yul\":4215:4217   */\n      0x40\n        /* \"#utility.yul\":4204:4213   */\n      dup3\n        /* \"#utility.yul\":4200:4218   */\n      add\n        /* \"#utility.yul\":4192:4218   */\n      swap1\n      pop\n        /* \"#utility.yul\":4228:4299   */\n      tag_106\n        /* \"#utility.yul\":4296:4297   */\n      0x00\n        /* \"#utility.yul\":4285:4294   */\n      dup4\n        /* \"#utility.yul\":4281:4298   */\n      add\n        /* \"#utility.yul\":4272:4278   */\n      dup6\n        /* \"#utility.yul\":4228:4299   */\n      tag_52\n      jump\t// in\n    tag_106:\n        /* \"#utility.yul\":4309:4381   */\n      tag_107\n        /* \"#utility.yul\":4377:4379   */\n      0x20\n        /* \"#utility.yul\":4366:4375   */\n      dup4\n        /* \"#utility.yul\":4362:4380   */\n      add\n        /* \"#utility.yul\":4353:4359   */\n      dup5\n        /* \"#utility.yul\":4309:4381   */\n      tag_55\n      jump\t// in\n    tag_107:\n        /* \"#utility.yul\":4056:4388   */\n      swap4\n      swap3\n      pop\n      pop\n      pop\n      jump\t// out\n        /* \"#utility.yul\":4394:4563   */\n    tag_59:\n        /* \"#utility.yul\":4534:4555   */\n      0x5573657220616c72656164792065786973747300000000000000000000000000\n        /* \"#utility.yul\":4530:4531   */\n      0x00\n        /* \"#utility.yul\":4522:4528   */\n      dup3\n        /* \"#utility.yul\":4518:4532   */\n      add\n        /* \"#utility.yul\":4511:4556   */\n      mstore\n        /* \"#utility.yul\":4394:4563   */\n      pop\n      jump\t// out\n        /* \"#utility.yul\":4569:4935   */\n    tag_60:\n        /* \"#utility.yul\":4711:4714   */\n      0x00\n        /* \"#utility.yul\":4732:4799   */\n      tag_110\n        /* \"#utility.yul\":4796:4798   */\n      0x13\n        /* \"#utility.yul\":4791:4794   */\n      dup4\n        /* \"#utility.yul\":4732:4799   */\n      tag_56\n      jump\t// in\n    tag_110:\n        /* \"#utility.yul\":4725:4799   */\n      swap2\n      pop\n        /* \"#utility.yul\":4808:4901   */\n      tag_111\n        /* \"#utility.yul\":4897:4900   */\n      dup3\n        /* \"#utility.yul\":4808:4901   */\n      tag_59\n      jump\t// in\n    tag_111:\n        /* \"#utility.yul\":4926:4928   */\n      0x20\n        /* \"#utility.yul\":4921:4924   */\n      dup3\n        /* \"#utility.yul\":4917:4929   */\n      add\n        /* \"#utility.yul\":4910:4929   */\n      swap1\n      pop\n        /* \"#utility.yul\":4569:4935   */\n      swap2\n      swap1\n      pop\n      jump\t// out\n        /* \"#utility.yul\":4941:5360   */\n    tag_42:\n        /* \"#utility.yul\":5107:5111   */\n      0x00\n        /* \"#utility.yul\":5145:5147   */\n      0x20\n        /* \"#utility.yul\":5134:5143   */\n      dup3\n        /* \"#utility.yul\":5130:5148   */\n      add\n        /* \"#utility.yul\":5122:5148   */\n      swap1\n      pop\n        /* \"#utility.yul\":5194:5203   */\n      dup2\n        /* \"#utility.yul\":5188:5192   */\n      dup2\n        /* \"#utility.yul\":5184:5204   */\n      sub\n        /* \"#utility.yul\":5180:5181   */\n      0x00\n        /* \"#utility.yul\":5169:5178   */\n      dup4\n        /* \"#utility.yul\":5165:5182   */\n      add\n        /* \"#utility.yul\":5158:5205   */\n      mstore\n        /* \"#utility.yul\":5222:5353   */\n      tag_113\n        /* \"#utility.yul\":5348:5352   */\n      dup2\n        /* \"#utility.yul\":5222:5353   */\n      tag_60\n      jump\t// in\n    tag_113:\n        /* \"#utility.yul\":5214:5353   */\n      swap1\n      pop\n        /* \"#utility.yul\":4941:5360   */\n      swap2\n      swap1\n      pop\n      jump\t// out\n\n    auxdata: 0xa264697066735822122096e79ad62ddf433462cc46b4b5ac9b0e8177d5289dc8615057fe49f5f239bf3764736f6c63430008120033\n}\n",
				"bytecode": {
					"linkReferences": {},
					"object": "608060405234801561001057600080fd5b50610696806100206000396000f3fe608060405234801561001057600080fd5b50600436106100575760003560e01c8063502c9bd51461005c578063a87430ba1461008c578063b5cb15f7146100bd578063c648049d146100db578063ffbdff66146100f7575b600080fd5b61007660048036038101906100719190610419565b610113565b6040516100839190610487565b60405180910390f35b6100a660048036038101906100a191906104ce565b610152565b6040516100b492919061050a565b60405180910390f35b6100c5610176565b6040516100d29190610533565b60405180910390f35b6100f560048036038101906100f09190610419565b610183565b005b610111600480360381019061010c9190610419565b610289565b005b6001818154811061012357600080fd5b906000526020600020016000915054906101000a900473ffffffffffffffffffffffffffffffffffffffff1681565b60006020528060005260406000206000915090508060000154908060010154905082565b6000600180549050905090565b60008060003373ffffffffffffffffffffffffffffffffffffffff1673ffffffffffffffffffffffffffffffffffffffff1681526020019081526020016000206000015403610207576040517f08c379a00000000000000000000000000000000000000000000000000000000081526004016101fe906105ab565b60405180910390fd5b806000803373ffffffffffffffffffffffffffffffffffffffff1673ffffffffffffffffffffffffffffffffffffffff168152602001908152602001600020600101819055507fe8e4f1ef1872055fc8a48b9bbb125507e2478dcbaf35f2ce198dfbd3cb00d3f3338260405161027e9291906105cb565b60405180910390a150565b60008060003373ffffffffffffffffffffffffffffffffffffffff1673ffffffffffffffffffffffffffffffffffffffff168152602001908152602001600020600001541461030d576040517f08c379a000000000000000000000000000000000000000000000000000000000815260040161030490610640565b60405180910390fd5b604051806040016040528082815260200160008152506000803373ffffffffffffffffffffffffffffffffffffffff1673ffffffffffffffffffffffffffffffffffffffff16815260200190815260200160002060008201518160000155602082015181600101559050506001339080600181540180825580915050600190039060005260206000200160009091909190916101000a81548173ffffffffffffffffffffffffffffffffffffffff021916908373ffffffffffffffffffffffffffffffffffffffff16021790555050565b600080fd5b6000819050919050565b6103f6816103e3565b811461040157600080fd5b50565b600081359050610413816103ed565b92915050565b60006020828403121561042f5761042e6103de565b5b600061043d84828501610404565b91505092915050565b600073ffffffffffffffffffffffffffffffffffffffff82169050919050565b600061047182610446565b9050919050565b61048181610466565b82525050565b600060208201905061049c6000830184610478565b92915050565b6104ab81610466565b81146104b657600080fd5b50565b6000813590506104c8816104a2565b92915050565b6000602082840312156104e4576104e36103de565b5b60006104f2848285016104b9565b91505092915050565b610504816103e3565b82525050565b600060408201905061051f60008301856104fb565b61052c60208301846104fb565b9392505050565b600060208201905061054860008301846104fb565b92915050565b600082825260208201905092915050565b7f5573657220646f6573206e6f7420657869737400000000000000000000000000600082015250565b600061059560138361054e565b91506105a08261055f565b602082019050919050565b600060208201905081810360008301526105c481610588565b9050919050565b60006040820190506105e06000830185610478565b6105ed60208301846104fb565b9392505050565b7f5573657220616c72656164792065786973747300000000000000000000000000600082015250565b600061062a60138361054e565b9150610635826105f4565b602082019050919050565b600060208201905081810360008301526106598161061d565b905091905056fea264697066735822122096e79ad62ddf433462cc46b4b5ac9b0e8177d5289dc8615057fe49f5f239bf3764736f6c63430008120033",
					"opcodes": "PUSH1 0x80 PUSH1 0x40 MSTORE CALLVALUE DUP1 ISZERO PUSH2 0x10 JUMPI PUSH1 0x0 DUP1 REVERT JUMPDEST POP PUSH2 0x696 DUP1 PUSH2 0x20 PUSH1 0x0 CODECOPY PUSH1 0x0 RETURN INVALID PUSH1 0x80 PUSH1 0x40 MSTORE CALLVALUE DUP1 ISZERO PUSH2 0x10 JUMPI PUSH1 0x0 DUP1 REVERT JUMPDEST POP PUSH1 0x4 CALLDATASIZE LT PUSH2 0x57 JUMPI PUSH1 0x0 CALLDATALOAD PUSH1 0xE0 SHR DUP1 PUSH4 0x502C9BD5 EQ PUSH2 0x5C JUMPI DUP1 PUSH4 0xA87430BA EQ PUSH2 0x8C JUMPI DUP1 PUSH4 0xB5CB15F7 EQ PUSH2 0xBD JUMPI DUP1 PUSH4 0xC648049D EQ PUSH2 0xDB JUMPI DUP1 PUSH4 0xFFBDFF66 EQ PUSH2 0xF7 JUMPI JUMPDEST PUSH1 0x0 DUP1 REVERT JUMPDEST PUSH2 0x76 PUSH1 0x4 DUP1 CALLDATASIZE SUB DUP2 ADD SWAP1 PUSH2 0x71 SWAP2 SWAP1 PUSH2 0x419 JUMP JUMPDEST PUSH2 0x113 JUMP JUMPDEST PUSH1 0x40 MLOAD PUSH2 0x83 SWAP2 SWAP1 PUSH2 0x487 JUMP JUMPDEST PUSH1 0x40 MLOAD DUP1 SWAP2 SUB SWAP1 RETURN JUMPDEST PUSH2 0xA6 PUSH1 0x4 DUP1 CALLDATASIZE SUB DUP2 ADD SWAP1 PUSH2 0xA1 SWAP2 SWAP1 PUSH2 0x4CE JUMP JUMPDEST PUSH2 0x152 JUMP JUMPDEST PUSH1 0x40 MLOAD PUSH2 0xB4 SWAP3 SWAP2 SWAP1 PUSH2 0x50A JUMP JUMPDEST PUSH1 0x40 MLOAD DUP1 SWAP2 SUB SWAP1 RETURN JUMPDEST PUSH2 0xC5 PUSH2 0x176 JUMP JUMPDEST PUSH1 0x40 MLOAD PUSH2 0xD2 SWAP2 SWAP1 PUSH2 0x533 JUMP JUMPDEST PUSH1 0x40 MLOAD DUP1 SWAP2 SUB SWAP1 RETURN JUMPDEST PUSH2 0xF5 PUSH1 0x4 DUP1 CALLDATASIZE SUB DUP2 ADD SWAP1 PUSH2 0xF0 SWAP2 SWAP1 PUSH2 0x419 JUMP JUMPDEST PUSH2 0x183 JUMP JUMPDEST STOP JUMPDEST PUSH2 0x111 PUSH1 0x4 DUP1 CALLDATASIZE SUB DUP2 ADD SWAP1 PUSH2 0x10C SWAP2 SWAP1 PUSH2 0x419 JUMP JUMPDEST PUSH2 0x289 JUMP JUMPDEST STOP JUMPDEST PUSH1 0x1 DUP2 DUP2 SLOAD DUP2 LT PUSH2 0x123 JUMPI PUSH1 0x0 DUP1 REVERT JUMPDEST SWAP1 PUSH1 0x0 MSTORE PUSH1 0x20 PUSH1 0x0 KECCAK256 ADD PUSH1 0x0 SWAP2 POP SLOAD SWAP1 PUSH2 0x100 EXP SWAP1 DIV PUSH20 0xFFFFFFFFFFFFFFFFFFFFFFFFFFFFFFFFFFFFFFFF AND DUP2 JUMP JUMPDEST PUSH1 0x0 PUSH1 0x20 MSTORE DUP1 PUSH1 0x0 MSTORE PUSH1 0x40 PUSH1 0x0 KECCAK256 PUSH1 0x0 SWAP2 POP SWAP1 POP DUP1 PUSH1 0x0 ADD SLOAD SWAP1 DUP1 PUSH1 0x1 ADD SLOAD SWAP1 POP DUP3 JUMP JUMPDEST PUSH1 0x0 PUSH1 0x1 DUP1 SLOAD SWAP1 POP SWAP1 POP SWAP1 JUMP JUMPDEST PUSH1 0x0 DUP1 PUSH1 0x0 CALLER PUSH20 0xFFFFFFFFFFFFFFFFFFFFFFFFFFFFFFFFFFFFFFFF AND PUSH20 0xFFFFFFFFFFFFFFFFFFFFFFFFFFFFFFFFFFFFFFFF AND DUP2 MSTORE PUSH1 0x20 ADD SWAP1 DUP2 MSTORE PUSH1 0x20 ADD PUSH1 0x0 KECCAK256 PUSH1 0x0 ADD SLOAD SUB PUSH2 0x207 JUMPI PUSH1 0x40 MLOAD PUSH32 0x8C379A000000000000000000000000000000000000000000000000000000000 DUP2 MSTORE PUSH1 0x4 ADD PUSH2 0x1FE SWAP1 PUSH2 0x5AB JUMP JUMPDEST PUSH1 0x40 MLOAD DUP1 SWAP2 SUB SWAP1 REVERT JUMPDEST DUP1 PUSH1 0x0 DUP1 CALLER PUSH20 0xFFFFFFFFFFFFFFFFFFFFFFFFFFFFFFFFFFFFFFFF AND PUSH20 0xFFFFFFFFFFFFFFFFFFFFFFFFFFFFFFFFFFFFFFFF AND DUP2 MSTORE PUSH1 0x20 ADD SWAP1 DUP2 MSTORE PUSH1 0x20 ADD PUSH1 0x0 KECCAK256 PUSH1 0x1 ADD DUP2 SWAP1 SSTORE POP PUSH32 0xE8E4F1EF1872055FC8A48B9BBB125507E2478DCBAF35F2CE198DFBD3CB00D3F3 CALLER DUP3 PUSH1 0x40 MLOAD PUSH2 0x27E SWAP3 SWAP2 SWAP1 PUSH2 0x5CB JUMP JUMPDEST PUSH1 0x40 MLOAD DUP1 SWAP2 SUB SWAP1 LOG1 POP JUMP JUMPDEST PUSH1 0x0 DUP1 PUSH1 0x0 CALLER PUSH20 0xFFFFFFFFFFFFFFFFFFFFFFFFFFFFFFFFFFFFFFFF AND PUSH20 0xFFFFFFFFFFFFFFFFFFFFFFFFFFFFFFFFFFFFFFFF AND DUP2 MSTORE PUSH1 0x20 ADD SWAP1 DUP2 MSTORE PUSH1 0x20 ADD PUSH1 0x0 KECCAK256 PUSH1 0x0 ADD SLOAD EQ PUSH2 0x30D JUMPI PUSH1 0x40 MLOAD PUSH32 0x8C379A000000000000000000000000000000000000000000000000000000000 DUP2 MSTORE PUSH1 0x4 ADD PUSH2 0x304 SWAP1 PUSH2 0x640 JUMP JUMPDEST PUSH1 0x40 MLOAD DUP1 SWAP2 SUB SWAP1 REVERT JUMPDEST PUSH1 0x40 MLOAD DUP1 PUSH1 0x40 ADD PUSH1 0x40 MSTORE DUP1 DUP3 DUP2 MSTORE PUSH1 0x20 ADD PUSH1 0x0 DUP2 MSTORE POP PUSH1 0x0 DUP1 CALLER PUSH20 0xFFFFFFFFFFFFFFFFFFFFFFFFFFFFFFFFFFFFFFFF AND PUSH20 0xFFFFFFFFFFFFFFFFFFFFFFFFFFFFFFFFFFFFFFFF AND DUP2 MSTORE PUSH1 0x20 ADD SWAP1 DUP2 MSTORE PUSH1 0x20 ADD PUSH1 0x0 KECCAK256 PUSH1 0x0 DUP3 ADD MLOAD DUP2 PUSH1 0x0 ADD SSTORE PUSH1 0x20 DUP3 ADD MLOAD DUP2 PUSH1 0x1 ADD SSTORE SWAP1 POP POP PUSH1 0x1 CALLER SWAP1 DUP1 PUSH1 0x1 DUP2 SLOAD ADD DUP1 DUP3 SSTORE DUP1 SWAP2 POP POP PUSH1 0x1 SWAP1 SUB SWAP1 PUSH1 0x0 MSTORE PUSH1 0x20 PUSH1 0x0 KECCAK256 ADD PUSH1 0x0 SWAP1 SWAP2 SWAP1 SWAP2 SWAP1 SWAP2 PUSH2 0x100 EXP DUP2 SLOAD DUP2 PUSH20 0xFFFFFFFFFFFFFFFFFFFFFFFFFFFFFFFFFFFFFFFF MUL NOT AND SWAP1 DUP4 PUSH20 0xFFFFFFFFFFFFFFFFFFFFFFFFFFFFFFFFFFFFFFFF AND MUL OR SWAP1 SSTORE POP POP JUMP JUMPDEST PUSH1 0x0 DUP1 REVERT JUMPDEST PUSH1 0x0 DUP2 SWAP1 POP SWAP2 SWAP1 POP JUMP JUMPDEST PUSH2 0x3F6 DUP2 PUSH2 0x3E3 JUMP JUMPDEST DUP2 EQ PUSH2 0x401 JUMPI PUSH1 0x0 DUP1 REVERT JUMPDEST POP JUMP JUMPDEST PUSH1 0x0 DUP2 CALLDATALOAD SWAP1 POP PUSH2 0x413 DUP2 PUSH2 0x3ED JUMP JUMPDEST SWAP3 SWAP2 POP POP JUMP JUMPDEST PUSH1 0x0 PUSH1 0x20 DUP3 DUP5 SUB SLT ISZERO PUSH2 0x42F JUMPI PUSH2 0x42E PUSH2 0x3DE JUMP JUMPDEST JUMPDEST PUSH1 0x0 PUSH2 0x43D DUP5 DUP3 DUP6 ADD PUSH2 0x404 JUMP JUMPDEST SWAP2 POP POP SWAP3 SWAP2 POP POP JUMP JUMPDEST PUSH1 0x0 PUSH20 0xFFFFFFFFFFFFFFFFFFFFFFFFFFFFFFFFFFFFFFFF DUP3 AND SWAP1 POP SWAP2 SWAP1 POP JUMP JUMPDEST PUSH1 0x0 PUSH2 0x471 DUP3 PUSH2 0x446 JUMP JUMPDEST SWAP1 POP SWAP2 SWAP1 POP JUMP JUMPDEST PUSH2 0x481 DUP2 PUSH2 0x466 JUMP JUMPDEST DUP3 MSTORE POP POP JUMP JUMPDEST PUSH1 0x0 PUSH1 0x20 DUP3 ADD SWAP1 POP PUSH2 0x49C PUSH1 0x0 DUP4 ADD DUP5 PUSH2 0x478 JUMP JUMPDEST SWAP3 SWAP2 POP POP JUMP JUMPDEST PUSH2 0x4AB DUP2 PUSH2 0x466 JUMP JUMPDEST DUP2 EQ PUSH2 0x4B6 JUMPI PUSH1 0x0 DUP1 REVERT JUMPDEST POP JUMP JUMPDEST PUSH1 0x0 DUP2 CALLDATALOAD SWAP1 POP PUSH2 0x4C8 DUP2 PUSH2 0x4A2 JUMP JUMPDEST SWAP3 SWAP2 POP POP JUMP JUMPDEST PUSH1 0x0 PUSH1 0x20 DUP3 DUP5 SUB SLT ISZERO PUSH2 0x4E4 JUMPI PUSH2 0x4E3 PUSH2 0x3DE JUMP JUMPDEST JUMPDEST PUSH1 0x0 PUSH2 0x4F2 DUP5 DUP3 DUP6 ADD PUSH2 0x4B9 JUMP JUMPDEST SWAP2 POP POP SWAP3 SWAP2 POP POP JUMP JUMPDEST PUSH2 0x504 DUP2 PUSH2 0x3E3 JUMP JUMPDEST DUP3 MSTORE POP POP JUMP JUMPDEST PUSH1 0x0 PUSH1 0x40 DUP3 ADD SWAP1 POP PUSH2 0x51F PUSH1 0x0 DUP4 ADD DUP6 PUSH2 0x4FB JUMP JUMPDEST PUSH2 0x52C PUSH1 0x20 DUP4 ADD DUP5 PUSH2 0x4FB JUMP JUMPDEST SWAP4 SWAP3 POP POP POP JUMP JUMPDEST PUSH1 0x0 PUSH1 0x20 DUP3 ADD SWAP1 POP PUSH2 0x548 PUSH1 0x0 DUP4 ADD DUP5 PUSH2 0x4FB JUMP JUMPDEST SWAP3 SWAP2 POP POP JUMP JUMPDEST PUSH1 0x0 DUP3 DUP3 MSTORE PUSH1 0x20 DUP3 ADD SWAP1 POP SWAP3 SWAP2 POP POP JUMP JUMPDEST PUSH32 0x5573657220646F6573206E6F7420657869737400000000000000000000000000 PUSH1 0x0 DUP3 ADD MSTORE POP JUMP JUMPDEST PUSH1 0x0 PUSH2 0x595 PUSH1 0x13 DUP4 PUSH2 0x54E JUMP JUMPDEST SWAP2 POP PUSH2 0x5A0 DUP3 PUSH2 0x55F JUMP JUMPDEST PUSH1 0x20 DUP3 ADD SWAP1 POP SWAP2 SWAP1 POP JUMP JUMPDEST PUSH1 0x0 PUSH1 0x20 DUP3 ADD SWAP1 POP DUP2 DUP2 SUB PUSH1 0x0 DUP4 ADD MSTORE PUSH2 0x5C4 DUP2 PUSH2 0x588 JUMP JUMPDEST SWAP1 POP SWAP2 SWAP1 POP JUMP JUMPDEST PUSH1 0x0 PUSH1 0x40 DUP3 ADD SWAP1 POP PUSH2 0x5E0 PUSH1 0x0 DUP4 ADD DUP6 PUSH2 0x478 JUMP JUMPDEST PUSH2 0x5ED PUSH1 0x20 DUP4 ADD DUP5 PUSH2 0x4FB JUMP JUMPDEST SWAP4 SWAP3 POP POP POP JUMP JUMPDEST PUSH32 0x5573657220616C72656164792065786973747300000000000000000000000000 PUSH1 0x0 DUP3 ADD MSTORE POP JUMP JUMPDEST PUSH1 0x0 PUSH2 0x62A PUSH1 0x13 DUP4 PUSH2 0x54E JUMP JUMPDEST SWAP2 POP PUSH2 0x635 DUP3 PUSH2 0x5F4 JUMP JUMPDEST PUSH1 0x20 DUP3 ADD SWAP1 POP SWAP2 SWAP1 POP JUMP JUMPDEST PUSH1 0x0 PUSH1 0x20 DUP3 ADD SWAP1 POP DUP2 DUP2 SUB PUSH1 0x0 DUP4 ADD MSTORE PUSH2 0x659 DUP2 PUSH2 0x61D JUMP JUMPDEST SWAP1 POP SWAP2 SWAP1 POP JUMP INVALID LOG2 PUSH5 0x6970667358 0x22 SLT KECCAK256 SWAP7 0xE7 SWAP11 0xD6 0x2D 0xDF NUMBER CALLVALUE PUSH3 0xCC46B4 0xB5 0xAC SWAP12 0xE DUP2 PUSH24 0xD5289DC8615057FE49F5F239BF3764736F6C634300081200 CALLER "
				},
				"gasEstimates": {
					"creation": {
						"codeDepositCost": "337200",
						"executionCost": "374",
						"totalCost": "337574"
					},
					"external": {
						"createUser(uint256)": "78568",
						"getUserCount()": "2467",
						"updateCounter(uint256)": "infinite",
						"userAddresses(uint256)": "4934",
						"users(address)": "infinite"
					}
				},
				"methodIdentifiers": {
					"createUser(uint256)": "ffbdff66",
					"getUserCount()": "b5cb15f7",
					"updateCounter(uint256)": "c648049d",
					"userAddresses(uint256)": "502c9bd5",
					"users(address)": "a87430ba"
				}
			},
			"storageLayout": {
				"storage": [
					{
						"astId": 11,
						"contract": "UserCounter.sol:UserCounter",
						"label": "users",
						"offset": 0,
						"slot": "0",
						"type": "t_mapping(t_address,t_struct(User)6_storage)"
					},
					{
						"astId": 14,
						"contract": "UserCounter.sol:UserCounter",
						"label": "userAddresses",
						"offset": 0,
						"slot": "1",
						"type": "t_array(t_address)dyn_storage"
					}
				],
				"types": {
					"t_address": {
						"encoding": "inplace",
						"label": "address",
						"numberOfBytes": "20"
					},
					"t_array(t_address)dyn_storage": {
						"base": "t_address",
						"encoding": "dynamic_array",
						"label": "address[]",
						"numberOfBytes": "32"
					},
					"t_mapping(t_address,t_struct(User)6_storage)": {
						"encoding": "mapping",
						"key": "t_address",
						"label": "mapping(address => struct UserCounter.User)",
						"numberOfBytes": "32",
						"value": "t_struct(User)6_storage"
					},
					"t_struct(User)6_storage": {
						"encoding": "inplace",
						"label": "struct UserCounter.User",
						"members": [
							{
								"astId": 3,
								"contract": "UserCounter.sol:UserCounter",
								"label": "userId",
								"offset": 0,
								"slot": "0",
								"type": "t_uint256"
							},
							{
								"astId": 5,
								"contract": "UserCounter.sol:UserCounter",
								"label": "counter",
								"offset": 0,
								"slot": "1",
								"type": "t_uint256"
							}
						],
						"numberOfBytes": "64"
					},
					"t_uint256": {
						"encoding": "inplace",
						"label": "uint256",
						"numberOfBytes": "32"
					}
				}
			},
			"userdoc": {
				"kind": "user",
				"methods": {},
				"version": 1
			}
		}
	}
}